{
  "_format": "hh-sol-artifact-1",
  "contractName": "MarketFactory",
  "sourceName": "contracts/MarketFactory.sol",
  "abi": [
    {
      "inputs": [],
      "stateMutability": "nonpayable",
      "type": "constructor"
    },
    {
      "inputs": [
        {
          "internalType": "address",
          "name": "owner",
          "type": "address"
        }
      ],
      "name": "OwnableInvalidOwner",
      "type": "error"
    },
    {
      "inputs": [
        {
          "internalType": "address",
          "name": "account",
          "type": "address"
        }
      ],
      "name": "OwnableUnauthorizedAccount",
      "type": "error"
    },
    {
      "anonymous": false,
      "inputs": [
        {
          "indexed": true,
          "internalType": "uint256",
          "name": "marketId",
          "type": "uint256"
        },
        {
          "indexed": false,
          "internalType": "uint256",
          "name": "timestamp",
          "type": "uint256"
        }
      ],
      "name": "MarketRegistered",
      "type": "event"
    },
    {
      "anonymous": false,
      "inputs": [
        {
          "indexed": true,
          "internalType": "address",
          "name": "previousOwner",
          "type": "address"
        },
        {
          "indexed": true,
          "internalType": "address",
          "name": "newOwner",
          "type": "address"
        }
      ],
      "name": "OwnershipTransferred",
      "type": "event"
    },
    {
      "anonymous": false,
      "inputs": [
        {
          "indexed": true,
          "internalType": "address",
          "name": "predictionMarket",
          "type": "address"
        }
      ],
      "name": "PredictionMarketUpdated",
      "type": "event"
    },
    {
      "inputs": [
        {
          "internalType": "uint256",
          "name": "marketId",
          "type": "uint256"
        }
      ],
      "name": "exists",
      "outputs": [
        {
          "internalType": "bool",
          "name": "",
          "type": "bool"
        }
      ],
      "stateMutability": "view",
      "type": "function"
    },
    {
      "inputs": [],
      "name": "getAllMarkets",
      "outputs": [
        {
          "internalType": "uint256[]",
          "name": "",
          "type": "uint256[]"
        }
      ],
      "stateMutability": "view",
      "type": "function"
    },
    {
      "inputs": [],
      "name": "getMarketCount",
      "outputs": [
        {
          "internalType": "uint256",
          "name": "",
          "type": "uint256"
        }
      ],
      "stateMutability": "view",
      "type": "function"
    },
    {
      "inputs": [],
      "name": "marketCount",
      "outputs": [
        {
          "internalType": "uint256",
          "name": "",
          "type": "uint256"
        }
      ],
      "stateMutability": "view",
      "type": "function"
    },
    {
      "inputs": [
        {
          "internalType": "uint256",
          "name": "",
          "type": "uint256"
        }
      ],
      "name": "marketExists",
      "outputs": [
        {
          "internalType": "bool",
          "name": "",
          "type": "bool"
        }
      ],
      "stateMutability": "view",
      "type": "function"
    },
    {
      "inputs": [],
      "name": "owner",
      "outputs": [
        {
          "internalType": "address",
          "name": "",
          "type": "address"
        }
      ],
      "stateMutability": "view",
      "type": "function"
    },
    {
      "inputs": [],
      "name": "predictionMarket",
      "outputs": [
        {
          "internalType": "address",
          "name": "",
          "type": "address"
        }
      ],
      "stateMutability": "view",
      "type": "function"
    },
    {
      "inputs": [],
      "name": "registerMarket",
      "outputs": [
        {
          "internalType": "uint256",
          "name": "",
          "type": "uint256"
        }
      ],
      "stateMutability": "nonpayable",
      "type": "function"
    },
    {
      "inputs": [],
      "name": "renounceOwnership",
      "outputs": [],
      "stateMutability": "nonpayable",
      "type": "function"
    },
    {
      "inputs": [
        {
          "internalType": "address",
          "name": "_predictionMarket",
          "type": "address"
        }
      ],
      "name": "setPredictionMarket",
      "outputs": [],
      "stateMutability": "nonpayable",
      "type": "function"
    },
    {
      "inputs": [
        {
          "internalType": "address",
          "name": "newOwner",
          "type": "address"
        }
      ],
      "name": "transferOwnership",
      "outputs": [],
      "stateMutability": "nonpayable",
      "type": "function"
    }
  ],
  "bytecode": "0x608060405234801561001057600080fd5b50338061003757604051631e4fbdf760e01b81526000600482015260240160405180910390fd5b61004081610046565b50610096565b600080546001600160a01b038381166001600160a01b0319831681178455604051919092169283917f8be0079c531659141344cd1fd0a4f28419497f9722a3daafe3b4186f6b6457e09190a35050565b610556806100a56000396000f3fe608060405234801561001057600080fd5b50600436106100a95760003560e01c8063b0772d0b11610071578063b0772d0b1461013e578063def114b614610153578063ec69a65414610166578063ec97908214610189578063f2fde38b14610192578063fd69f3c2146101a557600080fd5b806301208837146100ae57806303b88ba2146100c95780634f558e79146100de578063715018a6146101115780638da5cb5b14610119575b600080fd5b6100b66101ad565b6040519081526020015b60405180910390f35b6100dc6100d736600461046c565b6102ab565b005b6101016100ec36600461049c565b60009081526003602052604090205460ff1690565b60405190151581526020016100c0565b6100dc610345565b6000546001600160a01b03165b6040516001600160a01b0390911681526020016100c0565b610146610359565b6040516100c091906104b5565b600254610126906001600160a01b031681565b61010161017436600461049c565b60036020526000908152604090205460ff1681565b6100b660015481565b6100dc6101a036600461046c565b6103b1565b6001546100b6565b6002546000906001600160a01b031633146102065760405162461bcd60e51b8152602060048201526014602482015273139bdd08141c99591a58dd1a5bdb93585c9ad95d60621b60448201526064015b60405180910390fd5b60018054906000610216836104f9565b909155505060018054600081815260036020526040808220805460ff1916851790556004805494850181559091527f8a35acfbc15ff81a39ae7d344fd709f28e8600b4aa8c65c6b64bfe7fe36bd19b909201819055905181907ff5fb876e44e07561d8c7f081e2b36562510347665493429ffb93b5b818c48fa29061029e9042815260200190565b60405180910390a2905090565b6102b36103ef565b6001600160a01b0381166102fb5760405162461bcd60e51b815260206004820152600f60248201526e496e76616c6964206164647265737360881b60448201526064016101fd565b600280546001600160a01b0319166001600160a01b0383169081179091556040517f5611a86704fbad5eab1e775a83d66df76b0139faa47f12264817ad6b9eac702c90600090a250565b61034d6103ef565b610357600061041c565b565b606060048054806020026020016040519081016040528092919081815260200182805480156103a757602002820191906000526020600020905b815481526020019060010190808311610393575b5050505050905090565b6103b96103ef565b6001600160a01b0381166103e357604051631e4fbdf760e01b8152600060048201526024016101fd565b6103ec8161041c565b50565b6000546001600160a01b031633146103575760405163118cdaa760e01b81523360048201526024016101fd565b600080546001600160a01b038381166001600160a01b0319831681178455604051919092169283917f8be0079c531659141344cd1fd0a4f28419497f9722a3daafe3b4186f6b6457e09190a35050565b60006020828403121561047e57600080fd5b81356001600160a01b038116811461049557600080fd5b9392505050565b6000602082840312156104ae57600080fd5b5035919050565b6020808252825182820181905260009190848201906040850190845b818110156104ed578351835292840192918401916001016104d1565b50909695505050505050565b60006001820161051957634e487b7160e01b600052601160045260246000fd5b506001019056fea26469706673582212206630d13c506d9366bca4a865979453deecec046c73b9ac59d401e38f396b449564736f6c63430008180033",
  "linkReferences": {},
  "deployedLinkReferences": {}
}