{
  "_format": "hh-sol-artifact-1",
  "contractName": "MarketTreasury",
  "sourceName": "contracts/MarketTreasury.sol",
  "abi": [
    {
      "inputs": [
        {
          "internalType": "address",
          "name": "vaultAddress",
          "type": "address"
        }
      ],
      "stateMutability": "nonpayable",
      "type": "constructor"
    },
    {
      "inputs": [
        {
          "internalType": "address",
          "name": "owner",
          "type": "address"
        }
      ],
      "name": "OwnableInvalidOwner",
      "type": "error"
    },
    {
      "inputs": [
        {
          "internalType": "address",
          "name": "account",
          "type": "address"
        }
      ],
      "name": "OwnableUnauthorizedAccount",
      "type": "error"
    },
    {
      "inputs": [],
      "name": "ReentrancyGuardReentrantCall",
      "type": "error"
    },
    {
      "anonymous": false,
      "inputs": [
        {
          "indexed": true,
          "internalType": "uint256",
          "name": "marketId",
          "type": "uint256"
        },
        {
          "indexed": false,
          "internalType": "uint256",
          "name": "amount",
          "type": "uint256"
        }
      ],
      "name": "LiquidityDeposited",
      "type": "event"
    },
    {
      "anonymous": false,
      "inputs": [
        {
          "indexed": true,
          "internalType": "uint256",
          "name": "marketId",
          "type": "uint256"
        },
        {
          "indexed": false,
          "internalType": "uint256",
          "name": "amount",
          "type": "uint256"
        }
      ],
      "name": "LiquidityLocked",
      "type": "event"
    },
    {
      "anonymous": false,
      "inputs": [
        {
          "indexed": true,
          "internalType": "uint256",
          "name": "marketId",
          "type": "uint256"
        },
        {
          "indexed": false,
          "internalType": "uint256",
          "name": "amount",
          "type": "uint256"
        }
      ],
      "name": "LiquidityReleased",
      "type": "event"
    },
    {
      "anonymous": false,
      "inputs": [
        {
          "indexed": true,
          "internalType": "address",
          "name": "previousOwner",
          "type": "address"
        },
        {
          "indexed": true,
          "internalType": "address",
          "name": "newOwner",
          "type": "address"
        }
      ],
      "name": "OwnershipTransferred",
      "type": "event"
    },
    {
      "anonymous": false,
      "inputs": [
        {
          "indexed": true,
          "internalType": "address",
          "name": "contractAddress",
          "type": "address"
        }
      ],
      "name": "PredictionMarketUpdated",
      "type": "event"
    },
    {
      "anonymous": false,
      "inputs": [
        {
          "indexed": true,
          "internalType": "address",
          "name": "contractAddress",
          "type": "address"
        }
      ],
      "name": "RewardDistributorUpdated",
      "type": "event"
    },
    {
      "inputs": [
        {
          "internalType": "uint256",
          "name": "marketId",
          "type": "uint256"
        },
        {
          "internalType": "uint256",
          "name": "amount",
          "type": "uint256"
        }
      ],
      "name": "depositLiquidity",
      "outputs": [],
      "stateMutability": "nonpayable",
      "type": "function"
    },
    {
      "inputs": [
        {
          "internalType": "uint256",
          "name": "marketId",
          "type": "uint256"
        }
      ],
      "name": "getMarketLiquidity",
      "outputs": [
        {
          "internalType": "uint256",
          "name": "",
          "type": "uint256"
        }
      ],
      "stateMutability": "view",
      "type": "function"
    },
    {
      "inputs": [],
      "name": "getVaultBalance",
      "outputs": [
        {
          "internalType": "uint256",
          "name": "",
          "type": "uint256"
        }
      ],
      "stateMutability": "view",
      "type": "function"
    },
    {
      "inputs": [
        {
          "internalType": "uint256",
          "name": "marketId",
          "type": "uint256"
        },
        {
          "internalType": "uint256",
          "name": "amount",
          "type": "uint256"
        }
      ],
      "name": "lockLiquidity",
      "outputs": [],
      "stateMutability": "nonpayable",
      "type": "function"
    },
    {
      "inputs": [
        {
          "internalType": "uint256",
          "name": "",
          "type": "uint256"
        }
      ],
      "name": "marketLiquidity",
      "outputs": [
        {
          "internalType": "uint256",
          "name": "",
          "type": "uint256"
        }
      ],
      "stateMutability": "view",
      "type": "function"
    },
    {
      "inputs": [],
      "name": "owner",
      "outputs": [
        {
          "internalType": "address",
          "name": "",
          "type": "address"
        }
      ],
      "stateMutability": "view",
      "type": "function"
    },
    {
      "inputs": [],
      "name": "predictionMarket",
      "outputs": [
        {
          "internalType": "address",
          "name": "",
          "type": "address"
        }
      ],
      "stateMutability": "view",
      "type": "function"
    },
    {
      "inputs": [
        {
          "internalType": "uint256",
          "name": "marketId",
          "type": "uint256"
        },
        {
          "internalType": "uint256",
          "name": "amount",
          "type": "uint256"
        }
      ],
      "name": "releaseLiquidity",
      "outputs": [],
      "stateMutability": "nonpayable",
      "type": "function"
    },
    {
      "inputs": [],
      "name": "renounceOwnership",
      "outputs": [],
      "stateMutability": "nonpayable",
      "type": "function"
    },
    {
      "inputs": [],
      "name": "rewardDistributor",
      "outputs": [
        {
          "internalType": "address",
          "name": "",
          "type": "address"
        }
      ],
      "stateMutability": "view",
      "type": "function"
    },
    {
      "inputs": [
        {
          "internalType": "address",
          "name": "contractAddress",
          "type": "address"
        }
      ],
      "name": "setPredictionMarket",
      "outputs": [],
      "stateMutability": "nonpayable",
      "type": "function"
    },
    {
      "inputs": [
        {
          "internalType": "address",
          "name": "contractAddress",
          "type": "address"
        }
      ],
      "name": "setRewardDistributor",
      "outputs": [],
      "stateMutability": "nonpayable",
      "type": "function"
    },
    {
      "inputs": [],
      "name": "totalLiquidity",
      "outputs": [
        {
          "internalType": "uint256",
          "name": "",
          "type": "uint256"
        }
      ],
      "stateMutability": "view",
      "type": "function"
    },
    {
      "inputs": [],
      "name": "totalLockedLiquidity",
      "outputs": [
        {
          "internalType": "uint256",
          "name": "",
          "type": "uint256"
        }
      ],
      "stateMutability": "view",
      "type": "function"
    },
    {
      "inputs": [],
      "name": "totalReleasedLiquidity",
      "outputs": [
        {
          "internalType": "uint256",
          "name": "",
          "type": "uint256"
        }
      ],
      "stateMutability": "view",
      "type": "function"
    },
    {
      "inputs": [
        {
          "internalType": "address",
          "name": "newOwner",
          "type": "address"
        }
      ],
      "name": "transferOwnership",
      "outputs": [],
      "stateMutability": "nonpayable",
      "type": "function"
    },
    {
      "inputs": [],
      "name": "vault",
      "outputs": [
        {
          "internalType": "contract IArcUSDCVault",
          "name": "",
          "type": "address"
        }
      ],
      "stateMutability": "view",
      "type": "function"
    }
  ],
  "bytecode": "0x608060405234801561001057600080fd5b50604051610b5d380380610b5d83398101604081905261002f9161013f565b338061005657604051631e4fbdf760e01b8152600060048201526024015b60405180910390fd5b61005f816100ef565b5060017f9b779b17422d0df92223018b32b4d1fa46e071723d6817e2486d003becc55f00556001600160a01b0381166100ca5760405162461bcd60e51b815260206004820152600d60248201526c125b9d985b1a59081d985d5b1d609a1b604482015260640161004d565b600180546001600160a01b0319166001600160a01b039290921691909117905561016f565b600080546001600160a01b038381166001600160a01b0319831681178455604051919092169283917f8be0079c531659141344cd1fd0a4f28419497f9722a3daafe3b4186f6b6457e09190a35050565b60006020828403121561015157600080fd5b81516001600160a01b038116811461016857600080fd5b9392505050565b6109df8061017e6000396000f3fe608060405234801561001057600080fd5b506004361061010b5760003560e01c8063a1809b95116100a2578063ec87682a11610071578063ec87682a14610216578063ed12e8ef14610229578063f2fde38b14610231578063fbfa77cf14610244578063ff007a181461025757600080fd5b8063a1809b95146101d4578063a8ece51a146101e7578063acc2166a146101f0578063def114b61461020357600080fd5b806351dd9535116100de57806351dd9535146101745780636e67356b14610187578063715018a6146101a75780638da5cb5b146101af57600080fd5b806303b88ba21461011057806307b322a41461012557806315770f921461015857806334a860e414610161575b600080fd5b61012361011e3660046108bb565b610260565b005b6101456101333660046108eb565b60009081526007602052604090205490565b6040519081526020015b60405180910390f35b61014560045481565b61012361016f366004610904565b6102ff565b610123610182366004610904565b610417565b6101456101953660046108eb565b60076020526000908152604090205481565b610123610556565b6000546001600160a01b03165b6040516001600160a01b03909116815260200161014f565b6101236101e23660046108bb565b61056a565b61014560055481565b6003546101bc906001600160a01b031681565b6002546101bc906001600160a01b031681565b610123610224366004610904565b610604565b61014561071d565b61012361023f3660046108bb565b610790565b6001546101bc906001600160a01b031681565b61014560065481565b6102686107ce565b6001600160a01b0381166102b55760405162461bcd60e51b815260206004820152600f60248201526e496e76616c6964206164647265737360881b60448201526064015b60405180910390fd5b600280546001600160a01b0319166001600160a01b0383169081179091556040517f5611a86704fbad5eab1e775a83d66df76b0139faa47f12264817ad6b9eac702c90600090a250565b6002546001600160a01b031633146103505760405162461bcd60e51b8152602060048201526014602482015273139bdd08141c99591a58dd1a5bdb93585c9ad95d60621b60448201526064016102ac565b6103586107fb565b600081116103785760405162461bcd60e51b81526004016102ac90610926565b60008281526007602052604081208054839290610396908490610964565b9250508190555080600460008282546103af9190610964565b909155505060405181815282907f9c86429231ed0411e3112a1dd5c6578826c2d48089d5ec491e874ce0029c0bbe906020015b60405180910390a261041360017f9b779b17422d0df92223018b32b4d1fa46e071723d6817e2486d003becc55f0055565b5050565b6003546001600160a01b031633146104695760405162461bcd60e51b81526020600482015260156024820152742737ba102932bbb0b9322234b9ba3934b13aba37b960591b60448201526064016102ac565b6104716107fb565b600081116104915760405162461bcd60e51b81526004016102ac90610926565b6000828152600760205260409020548111156104e85760405162461bcd60e51b8152602060048201526016602482015275496e73756666696369656e74206c697175696469747960501b60448201526064016102ac565b6000828152600760205260408120805483929061050690849061097d565b92505081905550806006600082825461051f9190610964565b909155505060405181815282907fe7f91c23e4367f2bcb00c262b9ef4630c3bdcefcd788b87a308846b1a76539c4906020016103e2565b61055e6107ce565b6105686000610829565b565b6105726107ce565b6001600160a01b0381166105ba5760405162461bcd60e51b815260206004820152600f60248201526e496e76616c6964206164647265737360881b60448201526064016102ac565b600380546001600160a01b0319166001600160a01b0383169081179091556040517f15057bbec20fe352ac8931e529ade6a9ce138c954ffc87d6aa3423dd066c4acd90600090a250565b6002546001600160a01b031633146106555760405162461bcd60e51b8152602060048201526014602482015273139bdd08141c99591a58dd1a5bdb93585c9ad95d60621b60448201526064016102ac565b61065d6107fb565b6000811161067d5760405162461bcd60e51b81526004016102ac90610926565b6000828152600760205260409020548111156106d45760405162461bcd60e51b8152602060048201526016602482015275496e73756666696369656e74206c697175696469747960501b60448201526064016102ac565b80600560008282546106e69190610964565b909155505060405181815282907fcb75aa8347c098d414422e8cafbbe4e2c1a229f5b27bf425984b2b9792aa787a906020016103e2565b6001546040805163017ed98160e31b815290516000926001600160a01b031691630bf6cc089160048083019260209291908290030181865afa158015610767573d6000803e3d6000fd5b505050506040513d601f19601f8201168201806040525081019061078b9190610990565b905090565b6107986107ce565b6001600160a01b0381166107c257604051631e4fbdf760e01b8152600060048201526024016102ac565b6107cb81610829565b50565b6000546001600160a01b031633146105685760405163118cdaa760e01b81523360048201526024016102ac565b610803610879565b60027f9b779b17422d0df92223018b32b4d1fa46e071723d6817e2486d003becc55f0055565b600080546001600160a01b038381166001600160a01b0319831681178455604051919092169283917f8be0079c531659141344cd1fd0a4f28419497f9722a3daafe3b4186f6b6457e09190a35050565b7f9b779b17422d0df92223018b32b4d1fa46e071723d6817e2486d003becc55f005460020361056857604051633ee5aeb560e01b815260040160405180910390fd5b6000602082840312156108cd57600080fd5b81356001600160a01b03811681146108e457600080fd5b9392505050565b6000602082840312156108fd57600080fd5b5035919050565b6000806040838503121561091757600080fd5b50508035926020909101359150565b6020808252600e908201526d125b9d985b1a5908185b5bdd5b9d60921b604082015260600190565b634e487b7160e01b600052601160045260246000fd5b808201808211156109775761097761094e565b92915050565b818103818111156109775761097761094e565b6000602082840312156109a257600080fd5b505191905056fea26469706673582212201e0c080980546fd51f92797d2252a21296efe7cd88d6a618b2ef89cc8e16a18864736f6c63430008180033",
  "linkReferences": {},
  "deployedLinkReferences": {}
}