{
  "_format": "hh-sol-artifact-1",
  "contractName": "PredictionMarket",
  "sourceName": "contracts/PredictionMarket.sol",
  "abi": [
    {
      "inputs": [
        {
          "internalType": "address",
          "name": "factoryAddress",
          "type": "address"
        },
        {
          "internalType": "address",
          "name": "treasuryAddress",
          "type": "address"
        },
        {
          "internalType": "address",
          "name": "rewardDistributorAddress",
          "type": "address"
        }
      ],
      "stateMutability": "nonpayable",
      "type": "constructor"
    },
    {
      "inputs": [
        {
          "internalType": "address",
          "name": "owner",
          "type": "address"
        }
      ],
      "name": "OwnableInvalidOwner",
      "type": "error"
    },
    {
      "inputs": [
        {
          "internalType": "address",
          "name": "account",
          "type": "address"
        }
      ],
      "name": "OwnableUnauthorizedAccount",
      "type": "error"
    },
    {
      "inputs": [],
      "name": "ReentrancyGuardReentrantCall",
      "type": "error"
    },
    {
      "anonymous": false,
      "inputs": [
        {
          "indexed": true,
          "internalType": "uint256",
          "name": "marketId",
          "type": "uint256"
        },
        {
          "indexed": false,
          "internalType": "string",
          "name": "question",
          "type": "string"
        },
        {
          "indexed": true,
          "internalType": "address",
          "name": "creator",
          "type": "address"
        }
      ],
      "name": "MarketCreated",
      "type": "event"
    },
    {
      "anonymous": false,
      "inputs": [
        {
          "indexed": true,
          "internalType": "uint256",
          "name": "marketId",
          "type": "uint256"
        },
        {
          "indexed": false,
          "internalType": "bool",
          "name": "outcome",
          "type": "bool"
        }
      ],
      "name": "MarketResolved",
      "type": "event"
    },
    {
      "anonymous": false,
      "inputs": [
        {
          "indexed": true,
          "internalType": "address",
          "name": "previousOwner",
          "type": "address"
        },
        {
          "indexed": true,
          "internalType": "address",
          "name": "newOwner",
          "type": "address"
        }
      ],
      "name": "OwnershipTransferred",
      "type": "event"
    },
    {
      "anonymous": false,
      "inputs": [
        {
          "indexed": true,
          "internalType": "address",
          "name": "trader",
          "type": "address"
        },
        {
          "indexed": true,
          "internalType": "uint256",
          "name": "marketId",
          "type": "uint256"
        },
        {
          "indexed": false,
          "internalType": "bool",
          "name": "side",
          "type": "bool"
        },
        {
          "indexed": false,
          "internalType": "uint256",
          "name": "amount",
          "type": "uint256"
        }
      ],
      "name": "SharesPurchased",
      "type": "event"
    },
    {
      "inputs": [
        {
          "internalType": "uint256",
          "name": "marketId",
          "type": "uint256"
        },
        {
          "internalType": "address",
          "name": "trader",
          "type": "address"
        },
        {
          "internalType": "uint256",
          "name": "amount",
          "type": "uint256"
        }
      ],
      "name": "assignReward",
      "outputs": [],
      "stateMutability": "nonpayable",
      "type": "function"
    },
    {
      "inputs": [
        {
          "internalType": "uint256",
          "name": "marketId",
          "type": "uint256"
        },
        {
          "internalType": "uint256",
          "name": "amount",
          "type": "uint256"
        }
      ],
      "name": "buyNo",
      "outputs": [],
      "stateMutability": "nonpayable",
      "type": "function"
    },
    {
      "inputs": [
        {
          "internalType": "uint256",
          "name": "marketId",
          "type": "uint256"
        },
        {
          "internalType": "uint256",
          "name": "amount",
          "type": "uint256"
        }
      ],
      "name": "buyYes",
      "outputs": [],
      "stateMutability": "nonpayable",
      "type": "function"
    },
    {
      "inputs": [
        {
          "internalType": "string",
          "name": "question",
          "type": "string"
        },
        {
          "internalType": "string",
          "name": "category",
          "type": "string"
        },
        {
          "internalType": "uint256",
          "name": "endTime",
          "type": "uint256"
        }
      ],
      "name": "createMarket",
      "outputs": [
        {
          "internalType": "uint256",
          "name": "",
          "type": "uint256"
        }
      ],
      "stateMutability": "nonpayable",
      "type": "function"
    },
    {
      "inputs": [],
      "name": "factory",
      "outputs": [
        {
          "internalType": "contract IMarketFactory",
          "name": "",
          "type": "address"
        }
      ],
      "stateMutability": "view",
      "type": "function"
    },
    {
      "inputs": [
        {
          "internalType": "uint256",
          "name": "marketId",
          "type": "uint256"
        }
      ],
      "name": "getMarket",
      "outputs": [
        {
          "components": [
            {
              "internalType": "uint256",
              "name": "id",
              "type": "uint256"
            },
            {
              "internalType": "string",
              "name": "question",
              "type": "string"
            },
            {
              "internalType": "string",
              "name": "category",
              "type": "string"
            },
            {
              "internalType": "address",
              "name": "creator",
              "type": "address"
            },
            {
              "internalType": "uint256",
              "name": "createdAt",
              "type": "uint256"
            },
            {
              "internalType": "uint256",
              "name": "endTime",
              "type": "uint256"
            },
            {
              "internalType": "uint256",
              "name": "yesPool",
              "type": "uint256"
            },
            {
              "internalType": "uint256",
              "name": "noPool",
              "type": "uint256"
            },
            {
              "internalType": "uint256",
              "name": "totalVolume",
              "type": "uint256"
            },
            {
              "internalType": "uint256",
              "name": "participantCount",
              "type": "uint256"
            },
            {
              "internalType": "bool",
              "name": "resolved",
              "type": "bool"
            },
            {
              "internalType": "bool",
              "name": "outcome",
              "type": "bool"
            }
          ],
          "internalType": "struct PredictionMarket.Market",
          "name": "",
          "type": "tuple"
        }
      ],
      "stateMutability": "view",
      "type": "function"
    },
    {
      "inputs": [
        {
          "internalType": "uint256",
          "name": "marketId",
          "type": "uint256"
        },
        {
          "internalType": "address",
          "name": "trader",
          "type": "address"
        }
      ],
      "name": "getNoPosition",
      "outputs": [
        {
          "internalType": "uint256",
          "name": "",
          "type": "uint256"
        }
      ],
      "stateMutability": "view",
      "type": "function"
    },
    {
      "inputs": [
        {
          "internalType": "uint256",
          "name": "marketId",
          "type": "uint256"
        },
        {
          "internalType": "address",
          "name": "trader",
          "type": "address"
        }
      ],
      "name": "getYesPosition",
      "outputs": [
        {
          "internalType": "uint256",
          "name": "",
          "type": "uint256"
        }
      ],
      "stateMutability": "view",
      "type": "function"
    },
    {
      "inputs": [
        {
          "internalType": "uint256",
          "name": "",
          "type": "uint256"
        }
      ],
      "name": "markets",
      "outputs": [
        {
          "internalType": "uint256",
          "name": "id",
          "type": "uint256"
        },
        {
          "internalType": "string",
          "name": "question",
          "type": "string"
        },
        {
          "internalType": "string",
          "name": "category",
          "type": "string"
        },
        {
          "internalType": "address",
          "name": "creator",
          "type": "address"
        },
        {
          "internalType": "uint256",
          "name": "createdAt",
          "type": "uint256"
        },
        {
          "internalType": "uint256",
          "name": "endTime",
          "type": "uint256"
        },
        {
          "internalType": "uint256",
          "name": "yesPool",
          "type": "uint256"
        },
        {
          "internalType": "uint256",
          "name": "noPool",
          "type": "uint256"
        },
        {
          "internalType": "uint256",
          "name": "totalVolume",
          "type": "uint256"
        },
        {
          "internalType": "uint256",
          "name": "participantCount",
          "type": "uint256"
        },
        {
          "internalType": "bool",
          "name": "resolved",
          "type": "bool"
        },
        {
          "internalType": "bool",
          "name": "outcome",
          "type": "bool"
        }
      ],
      "stateMutability": "view",
      "type": "function"
    },
    {
      "inputs": [
        {
          "internalType": "uint256",
          "name": "",
          "type": "uint256"
        },
        {
          "internalType": "address",
          "name": "",
          "type": "address"
        }
      ],
      "name": "noPositions",
      "outputs": [
        {
          "internalType": "uint256",
          "name": "",
          "type": "uint256"
        }
      ],
      "stateMutability": "view",
      "type": "function"
    },
    {
      "inputs": [],
      "name": "owner",
      "outputs": [
        {
          "internalType": "address",
          "name": "",
          "type": "address"
        }
      ],
      "stateMutability": "view",
      "type": "function"
    },
    {
      "inputs": [],
      "name": "renounceOwnership",
      "outputs": [],
      "stateMutability": "nonpayable",
      "type": "function"
    },
    {
      "inputs": [
        {
          "internalType": "uint256",
          "name": "marketId",
          "type": "uint256"
        },
        {
          "internalType": "bool",
          "name": "outcome",
          "type": "bool"
        }
      ],
      "name": "resolveMarket",
      "outputs": [],
      "stateMutability": "nonpayable",
      "type": "function"
    },
    {
      "inputs": [],
      "name": "rewardDistributor",
      "outputs": [
        {
          "internalType": "contract IRewardDistributor",
          "name": "",
          "type": "address"
        }
      ],
      "stateMutability": "view",
      "type": "function"
    },
    {
      "inputs": [
        {
          "internalType": "address",
          "name": "newOwner",
          "type": "address"
        }
      ],
      "name": "transferOwnership",
      "outputs": [],
      "stateMutability": "nonpayable",
      "type": "function"
    },
    {
      "inputs": [],
      "name": "treasury",
      "outputs": [
        {
          "internalType": "contract IMarketTreasury",
          "name": "",
          "type": "address"
        }
      ],
      "stateMutability": "view",
      "type": "function"
    },
    {
      "inputs": [
        {
          "internalType": "uint256",
          "name": "",
          "type": "uint256"
        },
        {
          "internalType": "address",
          "name": "",
          "type": "address"
        }
      ],
      "name": "yesPositions",
      "outputs": [
        {
          "internalType": "uint256",
          "name": "",
          "type": "uint256"
        }
      ],
      "stateMutability": "view",
      "type": "function"
    }
  ],
  "bytecode": "0x60806040523480156200001157600080fd5b50604051620015c5380380620015c583398101604081905262000034916200013b565b33806200005b57604051631e4fbdf760e01b81526000600482015260240160405180910390fd5b6200006681620000ce565b5060017f9b779b17422d0df92223018b32b4d1fa46e071723d6817e2486d003becc55f0055600180546001600160a01b039485166001600160a01b03199182161790915560028054938516938216939093179092556003805491909316911617905562000185565b600080546001600160a01b038381166001600160a01b0319831681178455604051919092169283917f8be0079c531659141344cd1fd0a4f28419497f9722a3daafe3b4186f6b6457e09190a35050565b80516001600160a01b03811681146200013657600080fd5b919050565b6000806000606084860312156200015157600080fd5b6200015c846200011e565b92506200016c602085016200011e565b91506200017c604085016200011e565b90509250925092565b61143080620001956000396000f3fe608060405234801561001057600080fd5b506004361061010b5760003560e01c8063a9f6b058116100a2578063cc3bdeee11610071578063cc3bdeee1461024f578063da524e101461027a578063eb44fdd3146102a5578063f2fde38b146102c5578063f98b7783146102d857600080fd5b8063a9f6b058146101eb578063acc2166a146101fe578063b1283e7714610211578063c45a01551461023c57600080fd5b8063617367cc116100de578063617367cc1461017157806361d027b3146101a7578063715018a6146101d25780638da5cb5b146101da57600080fd5b806318fcaec414610110578063399af5021461013657806348adfeaa1461014b57806357bde4461461015e575b600080fd5b61012361011e366004610ede565b6102eb565b6040519081526020015b60405180910390f35b610149610144366004610f0a565b610315565b005b610149610159366004610f2c565b610529565b61014961016c366004610f61565b6105a3565b61012361017f366004610ede565b60009182526005602090815260408084206001600160a01b0393909316845291905290205490565b6002546101ba906001600160a01b031681565b6040516001600160a01b03909116815260200161012d565b6101496106a2565b6000546001600160a01b03166101ba565b6101496101f9366004610f0a565b6106b6565b6003546101ba906001600160a01b031681565b61022461021f366004610f96565b610893565b60405161012d9c9b9a99989796959493929190610ff5565b6001546101ba906001600160a01b031681565b61012361025d366004610ede565b600660209081526000928352604080842090915290825290205481565b610123610288366004610ede565b600560209081526000928352604080842090915290825290205481565b6102b86102b3366004610f96565b610a0f565b60405161012d919061107a565b6101496102d3366004611150565b610c45565b6101236102e63660046111bb565b610c83565b60008281526006602090815260408083206001600160a01b03851684529091529020545b92915050565b61031d610dd5565b6000828152600460205260409020600a81015460ff16156103705760405162461bcd60e51b815260206004820152600860248201526714995cdbdb1d995960c21b60448201526064015b60405180910390fd5b806005015442106103b25760405162461bcd60e51b815260206004820152600c60248201526b13585c9ad95d08195b99195960a21b6044820152606401610367565b600082116103f35760405162461bcd60e51b815260206004820152600e60248201526d125b9d985b1a5908185b5bdd5b9d60921b6044820152606401610367565b60008381526005602090815260408083203384529091528120805484929061041c90849061122f565b9250508190555081816006016000828254610437919061122f565b9250508190555081816008016000828254610452919061122f565b9091555050600254604051630d2a183960e21b815260048101859052602481018490526001600160a01b03909116906334a860e490604401600060405180830381600087803b1580156104a457600080fd5b505af11580156104b8573d6000803e3d6000fd5b50506040805160018152602081018690528693503392507f0e1e283302fd0ae8f36403d97a1e808eeb97bf18cd37c5b5a6a2bc18f8b33d4f91015b60405180910390a35061052560017f9b779b17422d0df92223018b32b4d1fa46e071723d6817e2486d003becc55f0055565b5050565b610531610e03565b600354604051632456ff5560e11b8152600481018590526001600160a01b03848116602483015260448201849052909116906348adfeaa90606401600060405180830381600087803b15801561058657600080fd5b505af115801561059a573d6000803e3d6000fd5b50505050505050565b6105ab610e03565b6000828152600460205260409020600a81015460ff16156106015760405162461bcd60e51b815260206004820152601060248201526f105b1c9958591e481c995cdbdb1d995960821b6044820152606401610367565b80600501544210156106455760405162461bcd60e51b815260206004820152600d60248201526c4d61726b65742061637469766560981b6044820152606401610367565b600a810180548315156101000261ffff1990911617600117905560405183907f4927fe38919783250023d27e65a3e56b6b5c3e49364e51674a41ef08d62460d99061069590851515815260200190565b60405180910390a2505050565b6106aa610e03565b6106b46000610e30565b565b6106be610dd5565b6000828152600460205260409020600a81015460ff161561070c5760405162461bcd60e51b815260206004820152600860248201526714995cdbdb1d995960c21b6044820152606401610367565b8060050154421061074e5760405162461bcd60e51b815260206004820152600c60248201526b13585c9ad95d08195b99195960a21b6044820152606401610367565b6000821161078f5760405162461bcd60e51b815260206004820152600e60248201526d125b9d985b1a5908185b5bdd5b9d60921b6044820152606401610367565b6000838152600660209081526040808320338452909152812080548492906107b890849061122f565b92505081905550818160070160008282546107d3919061122f565b92505081905550818160080160008282546107ee919061122f565b9091555050600254604051630d2a183960e21b815260048101859052602481018490526001600160a01b03909116906334a860e490604401600060405180830381600087803b15801561084057600080fd5b505af1158015610854573d6000803e3d6000fd5b50506040805160008152602081018690528693503392507f0e1e283302fd0ae8f36403d97a1e808eeb97bf18cd37c5b5a6a2bc18f8b33d4f91016104f3565b600460205260009081526040902080546001820180549192916108b590611250565b80601f01602080910402602001604051908101604052809291908181526020018280546108e190611250565b801561092e5780601f106109035761010080835404028352916020019161092e565b820191906000526020600020905b81548152906001019060200180831161091157829003601f168201915b50505050509080600201805461094390611250565b80601f016020809104026020016040519081016040528092919081815260200182805461096f90611250565b80156109bc5780601f10610991576101008083540402835291602001916109bc565b820191906000526020600020905b81548152906001019060200180831161099f57829003601f168201915b50505060038401546004850154600586015460068701546007880154600889015460098a0154600a909a015498996001600160a01b03909616989497509295509093909260ff808216916101009004168c565b610a8060405180610180016040528060008152602001606081526020016060815260200160006001600160a01b031681526020016000815260200160008152602001600081526020016000815260200160008152602001600081526020016000151581526020016000151581525090565b600460008381526020019081526020016000206040518061018001604052908160008201548152602001600182018054610ab990611250565b80601f0160208091040260200160405190810160405280929190818152602001828054610ae590611250565b8015610b325780601f10610b0757610100808354040283529160200191610b32565b820191906000526020600020905b815481529060010190602001808311610b1557829003601f168201915b50505050508152602001600282018054610b4b90611250565b80601f0160208091040260200160405190810160405280929190818152602001828054610b7790611250565b8015610bc45780601f10610b9957610100808354040283529160200191610bc4565b820191906000526020600020905b815481529060010190602001808311610ba757829003601f168201915b505050918352505060038201546001600160a01b03166020820152600482015460408201526005820154606082015260068201546080820152600782015460a0820152600882015460c0820152600982015460e0820152600a9091015460ff8082161515610100808501919091529091041615156101209091015292915050565b610c4d610e03565b6001600160a01b038116610c7757604051631e4fbdf760e01b815260006004820152602401610367565b610c8081610e30565b50565b6000428211610cc75760405162461bcd60e51b815260206004820152601060248201526f496e76616c696420656e642074696d6560801b6044820152606401610367565b60015460408051630120883760e01b815290516000926001600160a01b0316916301208837916004808301926020929190829003018187875af1158015610d12573d6000803e3d6000fd5b505050506040513d601f19601f82011682018060405250810190610d36919061128a565b600081815260046020526040902081815590915060018101610d59888a8361130a565b5060028101610d6986888361130a565b506003810180546001600160a01b031916339081179091554260048301556005820185905560405183907f6bfe994aa671108bc4fcb31c2a97ab16ddb967720121010032b2e834bf5eacf690610dc2908c908c906113cb565b60405180910390a3509695505050505050565b610ddd610e80565b60027f9b779b17422d0df92223018b32b4d1fa46e071723d6817e2486d003becc55f0055565b6000546001600160a01b031633146106b45760405163118cdaa760e01b8152336004820152602401610367565b600080546001600160a01b038381166001600160a01b0319831681178455604051919092169283917f8be0079c531659141344cd1fd0a4f28419497f9722a3daafe3b4186f6b6457e09190a35050565b7f9b779b17422d0df92223018b32b4d1fa46e071723d6817e2486d003becc55f00546002036106b457604051633ee5aeb560e01b815260040160405180910390fd5b80356001600160a01b0381168114610ed957600080fd5b919050565b60008060408385031215610ef157600080fd5b82359150610f0160208401610ec2565b90509250929050565b60008060408385031215610f1d57600080fd5b50508035926020909101359150565b600080600060608486031215610f4157600080fd5b83359250610f5160208501610ec2565b9150604084013590509250925092565b60008060408385031215610f7457600080fd5b8235915060208301358015158114610f8b57600080fd5b809150509250929050565b600060208284031215610fa857600080fd5b5035919050565b6000815180845260005b81811015610fd557602081850181015186830182015201610fb9565b506000602082860101526020601f19601f83011685010191505092915050565b60006101808e835280602084015261100f8184018f610faf565b90508281036040840152611023818e610faf565b6001600160a01b039c909c1660608401525050608081019890985260a088019690965260c087019490945260e086019290925261010085015261012084015215156101408301521515610160909101529392505050565b6020815281516020820152600060208301516101808060408501526110a36101a0850183610faf565b91506040850151601f198584030160608601526110c08382610faf565b92505060608501516110dd60808601826001600160a01b03169052565b50608085015160a085015260a085015160c085015260c085015160e085015260e085015161010081818701528087015191505061012081818701528087015191505061014081818701528087015191505061016061113e8187018315159052565b90950151151593019290925250919050565b60006020828403121561116257600080fd5b61116b82610ec2565b9392505050565b60008083601f84011261118457600080fd5b50813567ffffffffffffffff81111561119c57600080fd5b6020830191508360208285010111156111b457600080fd5b9250929050565b6000806000806000606086880312156111d357600080fd5b853567ffffffffffffffff808211156111eb57600080fd5b6111f789838a01611172565b9097509550602088013591508082111561121057600080fd5b5061121d88828901611172565b96999598509660400135949350505050565b8082018082111561030f57634e487b7160e01b600052601160045260246000fd5b600181811c9082168061126457607f821691505b60208210810361128457634e487b7160e01b600052602260045260246000fd5b50919050565b60006020828403121561129c57600080fd5b5051919050565b634e487b7160e01b600052604160045260246000fd5b601f821115611305576000816000526020600020601f850160051c810160208610156112e25750805b601f850160051c820191505b81811015611301578281556001016112ee565b5050505b505050565b67ffffffffffffffff831115611322576113226112a3565b611336836113308354611250565b836112b9565b6000601f84116001811461136a57600085156113525750838201355b600019600387901b1c1916600186901b1783556113c4565b600083815260209020601f19861690835b8281101561139b578685013582556020948501946001909201910161137b565b50868210156113b85760001960f88860031b161c19848701351681555b505060018560011b0183555b5050505050565b60208152816020820152818360408301376000818301604090810191909152601f909201601f1916010191905056fea2646970667358221220d23344823e6964ce2908baa5eebe92604958099f181deb555afc7cb0ed32467564736f6c63430008180033",
  "linkReferences": {},
  "deployedLinkReferences": {}
}