{
  "_format": "hh-sol-artifact-1",
  "contractName": "RewardDistributor",
  "sourceName": "contracts/RewardDistributor.sol",
  "abi": [
    {
      "inputs": [
        {
          "internalType": "address",
          "name": "treasuryAddress",
          "type": "address"
        }
      ],
      "stateMutability": "nonpayable",
      "type": "constructor"
    },
    {
      "inputs": [
        {
          "internalType": "address",
          "name": "owner",
          "type": "address"
        }
      ],
      "name": "OwnableInvalidOwner",
      "type": "error"
    },
    {
      "inputs": [
        {
          "internalType": "address",
          "name": "account",
          "type": "address"
        }
      ],
      "name": "OwnableUnauthorizedAccount",
      "type": "error"
    },
    {
      "inputs": [],
      "name": "ReentrancyGuardReentrantCall",
      "type": "error"
    },
    {
      "anonymous": false,
      "inputs": [
        {
          "indexed": true,
          "internalType": "address",
          "name": "previousOwner",
          "type": "address"
        },
        {
          "indexed": true,
          "internalType": "address",
          "name": "newOwner",
          "type": "address"
        }
      ],
      "name": "OwnershipTransferred",
      "type": "event"
    },
    {
      "anonymous": false,
      "inputs": [
        {
          "indexed": true,
          "internalType": "address",
          "name": "contractAddress",
          "type": "address"
        }
      ],
      "name": "PredictionMarketUpdated",
      "type": "event"
    },
    {
      "anonymous": false,
      "inputs": [
        {
          "indexed": true,
          "internalType": "uint256",
          "name": "marketId",
          "type": "uint256"
        },
        {
          "indexed": true,
          "internalType": "address",
          "name": "trader",
          "type": "address"
        },
        {
          "indexed": false,
          "internalType": "uint256",
          "name": "amount",
          "type": "uint256"
        }
      ],
      "name": "RewardAssigned",
      "type": "event"
    },
    {
      "anonymous": false,
      "inputs": [
        {
          "indexed": true,
          "internalType": "uint256",
          "name": "marketId",
          "type": "uint256"
        },
        {
          "indexed": true,
          "internalType": "address",
          "name": "trader",
          "type": "address"
        },
        {
          "indexed": false,
          "internalType": "uint256",
          "name": "amount",
          "type": "uint256"
        }
      ],
      "name": "RewardClaimed",
      "type": "event"
    },
    {
      "inputs": [
        {
          "internalType": "uint256",
          "name": "marketId",
          "type": "uint256"
        },
        {
          "internalType": "address",
          "name": "trader",
          "type": "address"
        },
        {
          "internalType": "uint256",
          "name": "amount",
          "type": "uint256"
        }
      ],
      "name": "assignReward",
      "outputs": [],
      "stateMutability": "nonpayable",
      "type": "function"
    },
    {
      "inputs": [
        {
          "internalType": "uint256",
          "name": "marketId",
          "type": "uint256"
        }
      ],
      "name": "claimReward",
      "outputs": [],
      "stateMutability": "nonpayable",
      "type": "function"
    },
    {
      "inputs": [
        {
          "internalType": "uint256",
          "name": "marketId",
          "type": "uint256"
        },
        {
          "internalType": "address",
          "name": "trader",
          "type": "address"
        }
      ],
      "name": "claimed",
      "outputs": [
        {
          "internalType": "bool",
          "name": "",
          "type": "bool"
        }
      ],
      "stateMutability": "view",
      "type": "function"
    },
    {
      "inputs": [
        {
          "internalType": "uint256",
          "name": "marketId",
          "type": "uint256"
        },
        {
          "internalType": "address",
          "name": "trader",
          "type": "address"
        }
      ],
      "name": "getReward",
      "outputs": [
        {
          "internalType": "uint256",
          "name": "",
          "type": "uint256"
        }
      ],
      "stateMutability": "view",
      "type": "function"
    },
    {
      "inputs": [
        {
          "internalType": "uint256",
          "name": "",
          "type": "uint256"
        },
        {
          "internalType": "address",
          "name": "",
          "type": "address"
        }
      ],
      "name": "hasClaimed",
      "outputs": [
        {
          "internalType": "bool",
          "name": "",
          "type": "bool"
        }
      ],
      "stateMutability": "view",
      "type": "function"
    },
    {
      "inputs": [],
      "name": "owner",
      "outputs": [
        {
          "internalType": "address",
          "name": "",
          "type": "address"
        }
      ],
      "stateMutability": "view",
      "type": "function"
    },
    {
      "inputs": [],
      "name": "predictionMarket",
      "outputs": [
        {
          "internalType": "address",
          "name": "",
          "type": "address"
        }
      ],
      "stateMutability": "view",
      "type": "function"
    },
    {
      "inputs": [],
      "name": "renounceOwnership",
      "outputs": [],
      "stateMutability": "nonpayable",
      "type": "function"
    },
    {
      "inputs": [
        {
          "internalType": "uint256",
          "name": "",
          "type": "uint256"
        },
        {
          "internalType": "address",
          "name": "",
          "type": "address"
        }
      ],
      "name": "rewards",
      "outputs": [
        {
          "internalType": "uint256",
          "name": "",
          "type": "uint256"
        }
      ],
      "stateMutability": "view",
      "type": "function"
    },
    {
      "inputs": [
        {
          "internalType": "address",
          "name": "contractAddress",
          "type": "address"
        }
      ],
      "name": "setPredictionMarket",
      "outputs": [],
      "stateMutability": "nonpayable",
      "type": "function"
    },
    {
      "inputs": [
        {
          "internalType": "address",
          "name": "newOwner",
          "type": "address"
        }
      ],
      "name": "transferOwnership",
      "outputs": [],
      "stateMutability": "nonpayable",
      "type": "function"
    },
    {
      "inputs": [],
      "name": "treasury",
      "outputs": [
        {
          "internalType": "contract IMarketTreasury",
          "name": "",
          "type": "address"
        }
      ],
      "stateMutability": "view",
      "type": "function"
    }
  ],
  "bytecode": "0x608060405234801561001057600080fd5b5060405161096b38038061096b83398101604081905261002f916100f8565b338061005557604051631e4fbdf760e01b81526000600482015260240160405180910390fd5b61005e816100a8565b5060017f9b779b17422d0df92223018b32b4d1fa46e071723d6817e2486d003becc55f0055600180546001600160a01b0319166001600160a01b0392909216919091179055610128565b600080546001600160a01b038381166001600160a01b0319831681178455604051919092169283917f8be0079c531659141344cd1fd0a4f28419497f9722a3daafe3b4186f6b6457e09190a35050565b60006020828403121561010a57600080fd5b81516001600160a01b038116811461012157600080fd5b9392505050565b610834806101376000396000f3fe608060405234801561001057600080fd5b50600436106100b35760003560e01c8063873f6f9e11610071578063873f6f9e146101825780638da5cb5b146101b0578063ae169a50146101c1578063def114b6146101d4578063f2db11af146101e7578063f2fde38b1461021257600080fd5b80628f33d7146100b857806303b88ba2146100de578063120aa877146100f357806348adfeaa1461013c57806361d027b31461014f578063715018a61461017a575b600080fd5b6100cb6100c6366004610741565b610225565b6040519081526020015b60405180910390f35b6100f16100ec36600461076d565b61024f565b005b61012c610101366004610741565b60009182526003602090815260408084206001600160a01b0393909316845291905290205460ff1690565b60405190151581526020016100d5565b6100f161014a36600461078f565b6102ee565b600154610162906001600160a01b031681565b6040516001600160a01b0390911681526020016100d5565b6100f1610443565b61012c610190366004610741565b600360209081526000928352604080842090915290825290205460ff1681565b6000546001600160a01b0316610162565b6100f16101cf3660046107c4565b610457565b600254610162906001600160a01b031681565b6100cb6101f5366004610741565b600460209081526000928352604080842090915290825290205481565b6100f161022036600461076d565b6105fd565b60008281526004602090815260408083206001600160a01b03851684529091529020545b92915050565b610257610638565b6001600160a01b0381166102a45760405162461bcd60e51b815260206004820152600f60248201526e496e76616c6964206164647265737360881b60448201526064015b60405180910390fd5b600280546001600160a01b0319166001600160a01b0383169081179091556040517f5611a86704fbad5eab1e775a83d66df76b0139faa47f12264817ad6b9eac702c90600090a250565b6002546001600160a01b0316331461033f5760405162461bcd60e51b8152602060048201526014602482015273139bdd08141c99591a58dd1a5bdb93585c9ad95d60621b604482015260640161029b565b6001600160a01b0382166103865760405162461bcd60e51b815260206004820152600e60248201526d24b73b30b634b2103a3930b232b960911b604482015260640161029b565b600081116103c75760405162461bcd60e51b815260206004820152600e60248201526d125b9d985b1a5908185b5bdd5b9d60921b604482015260640161029b565b60008381526004602090815260408083206001600160a01b0386168452909152812080548392906103f99084906107dd565b90915550506040518181526001600160a01b0383169084907f40cea6a517c46e3041942d9b88a525b986aa75d5fe283b97daea8f241519e31d9060200160405180910390a3505050565b61044b610638565b6104556000610665565b565b61045f6106b5565b600081815260036020908152604080832033845290915290205460ff16156104bb5760405162461bcd60e51b815260206004820152600f60248201526e105b1c9958591e4818db185a5b5959608a1b604482015260640161029b565b60008181526004602090815260408083203384529091529020548061050e5760405162461bcd60e51b8152602060048201526009602482015268139bc81c995dd85c9960ba1b604482015260640161029b565b600082815260036020908152604080832033845290915290819020805460ff191660019081179091555490516351dd953560e01b815260048101849052602481018390526001600160a01b03909116906351dd953590604401600060405180830381600087803b15801561058157600080fd5b505af1158015610595573d6000803e3d6000fd5b50506040518381523392508491507f24b5efa61dd1cfc659205a97fb8ed868f3cb8c81922bab2b96423e5de1de2cb79060200160405180910390a3506105fa60017f9b779b17422d0df92223018b32b4d1fa46e071723d6817e2486d003becc55f0055565b50565b610605610638565b6001600160a01b03811661062f57604051631e4fbdf760e01b81526000600482015260240161029b565b6105fa81610665565b6000546001600160a01b031633146104555760405163118cdaa760e01b815233600482015260240161029b565b600080546001600160a01b038381166001600160a01b0319831681178455604051919092169283917f8be0079c531659141344cd1fd0a4f28419497f9722a3daafe3b4186f6b6457e09190a35050565b6106bd6106e3565b60027f9b779b17422d0df92223018b32b4d1fa46e071723d6817e2486d003becc55f0055565b7f9b779b17422d0df92223018b32b4d1fa46e071723d6817e2486d003becc55f005460020361045557604051633ee5aeb560e01b815260040160405180910390fd5b80356001600160a01b038116811461073c57600080fd5b919050565b6000806040838503121561075457600080fd5b8235915061076460208401610725565b90509250929050565b60006020828403121561077f57600080fd5b61078882610725565b9392505050565b6000806000606084860312156107a457600080fd5b833592506107b460208501610725565b9150604084013590509250925092565b6000602082840312156107d657600080fd5b5035919050565b8082018082111561024957634e487b7160e01b600052601160045260246000fdfea264697066735822122082370cb50407993adef78d4a7aa63b2abadd1ed80bab5e1bd11a62edeea9de7264736f6c63430008180033",
  "linkReferences": {},
  "deployedLinkReferences": {}
}